{
  "abi": [
    {
      "inputs": [
        {
          "internalType": "uint256[12]",
          "name": "input",
          "type": "uint256[12]"
        }
      ],
      "name": "checkPairing",
      "outputs": [
        {
          "internalType": "bool",
          "name": "",
          "type": "bool"
        }
      ],
      "stateMutability": "view",
      "type": "function"
    }
  ],
  "bytecode": {
    "object": "0x608060405234801561001057600080fd5b5061016e806100206000396000f3fe608060405234801561001057600080fd5b506004361061002b5760003560e01c8063d68ab68f14610030575b600080fd5b61004361003e3660046100ab565b610057565b604051901515815260200160405180910390f35b60006020826101808460085afa801561006f57602083f35b5060405162461bcd60e51b815260206004820152600c60248201526b77726f6e6720706172696e6760a01b604482015260640160405180910390fd5b60006101808083850312156100bf57600080fd5b83601f8401126100ce57600080fd5b60405181810181811067ffffffffffffffff821117156100fe57634e487b7160e01b600052604160045260246000fd5b60405290830190808583111561011357600080fd5b845b8381101561012d578035825260209182019101610115565b50909594505050505056fea2646970667358221220d09845a7772a977fceb62cd70cdd28b645fe28cc5935ae6928bcf64c34c6ce4f64736f6c63430008130033",
    "linkReferences": {}
  },
  "methodIdentifiers": {
    "checkPairing(uint256[12])": "d68ab68f"
  },
  "id": 18
}